{
  "contractName": "Counter",
  "abi": [
    {
      "inputs": [],
      "payable": false,
      "stateMutability": "nonpayable",
      "type": "constructor"
    },
    {
      "constant": true,
      "inputs": [],
      "name": "counter",
      "outputs": [
        {
          "internalType": "uint256",
          "name": "",
          "type": "uint256"
        }
      ],
      "payable": false,
      "stateMutability": "view",
      "type": "function"
    },
    {
      "constant": false,
      "inputs": [],
      "name": "increment",
      "outputs": [],
      "payable": false,
      "stateMutability": "nonpayable",
      "type": "function"
    },
    {
      "constant": true,
      "inputs": [],
      "name": "get",
      "outputs": [
        {
          "internalType": "uint256",
          "name": "",
          "type": "uint256"
        }
      ],
      "payable": false,
      "stateMutability": "view",
      "type": "function"
    }
  ],
  "bytecode": "0x608060405234801561001057600080fd5b506000808190555060d8806100266000396000f3fe6080604052348015600f57600080fd5b5060043610603c5760003560e01c806361bc221a1460415780636d4ce63c14605d578063d09de08a146079575b600080fd5b60476081565b6040518082815260200191505060405180910390f35b60636087565b6040518082815260200191505060405180910390f35b607f6090565b005b60005481565b60008054905090565b600080815480929190600101919050555056fea265627a7a723158207a54df2b2f6af3ccf656927b9cb6975db733cc8e3a59cfdaee851be0eb8c1bcb64736f6c63430005100032",
  "source": "// SPDX-License-Identifier: MIT\r\npragma solidity >=0.4.22 <0.9.0;\r\n\r\ncontract Counter{\r\n    uint public counter;\r\n    constructor() public{\r\n        counter = 0;\r\n    }\r\n    function increment() public{\r\n        counter++;\r\n    }\r\n    function get() public view returns (uint){\r\n        return counter;\r\n    }\r\n}",
  "sourcePath": "E:\\Blockchain Practice\\counter\\contracts\\Counter.sol",
  "compiler": {
    "name": "solc",
    "version": "0.5.16+commit.9c3226ce.Emscripten.clang"
  },
  "schemaVersion": "3.4.4",
  "updatedAt": "2021-12-29T14:58:02.002Z",
  "networkType": "ethereum",
  "devdoc": {
    "methods": {}
  },
  "userdoc": {
    "methods": {}
  }
}